:020000040000FA
:060000000A128A110C280F
:10000800FE00030EF1000A08F2000A128A111528F0
:100018000A128A110F28F301F40183010A128A11C6
:100028004F28831203138C1C1A281B2832288C1083
:100038000130F0007008F30765307306031D2528AA
:1000480026283228F3017408031D2B282C28302871
:10005800F401F40A87163228F401871272088A001C
:10006800710E8300FE0E7E0E0900831603178801A9
:1000780089018316031387124E30831203139200EB
:100088007C3083160313920086018B120C108C149B
:100098000B178B1708000A128A115D200A128A11A1
:1000A8000A128A1139200A128A1159280A128A1149
:0400B8000C28080008
:04400E00F1EBFFFED5
:00000001FF
